:100000000C94EC000C9414010C9414010C94140145
:100010000C9414010C9414010C9414010C9414010C
:100020000C9414010C9414010C9459080C94EB06D4
:100030000C9414010C9414010C9414010C941401EC
:100040000C9414010C9414010C9414010C941401DC
:100050000C9414010C9414010C9414010C944A098E
:100060000C9414010C9414010C9414010C941401BC
:100070000C9414010C9414010C9414010C941401AC
:100080000C9414010C9414010C9414010C9414019C
:100090000C9414010C9414010C9414010C9414018C
:1000A0000C9414010C9414010C9414019C0A9F0AE2
:1000B0008E0A920A980AC00AC00AC00AA30AA70AAE
:1000C000AB0AB10AB50AC00ABB0A080B0002020259
:1000D00001000904000001020200000524001001D3
:1000E0000524010101042402060524060001070578
:1000F000810310004009040100020A000000070506
:1001000002024000000705830240000012010002C5
:10011000EF02014041233680000101020301120178
:10012000000200000040412336800001010203016B
:1001300041726475696E6F204C4C43004172647566
:10014000696E6F204C656F6E6172646F0004030905
:1001500004070605040100080A0B0C0D0900000045
:100160000200090F0000030401000C000000000061
:100170000000000000000000000000000408020170
:1001800010408040102040804080080204018040E0
:1001900020100201108010204040200404040404B8
:1001A000030405020202020403020202020606061A
:1001B00006060604040202020404000000002500F2
:1001C00028002B002E003100000000002400270032
:1001D0002A002D003000A30311241FBECFEFDAE068
:1001E000DEBFCDBF11E0A0E0B1E0EEE7F8E102C074
:1001F00005900D92A436B107D9F721E0A4E6B1E04D
:1002000001C01D92A73EB207E1F711E0C8EDD1E0B1
:1002100004C02297FE010E941F0CC63DD107C9F7FA
:100220000E9437090C943D0C0C940000FC01DB018A
:10023000808191819C01205B34402935324030F42B
:100240008CED95E09183808381E00EC0803B9440EB
:1002500034F488EE93E0918380831C92089580EDBE
:1002600097E09183808382E08C93089561E0809190
:100270000E010E94C10A40E855E260E070E087E7A5
:1002800091E00E949D0364E271E087E791E00E94A3
:10029000E303109207011092060181E0809372013E
:1002A00082E080930501809304010E949409609389
:1002B00068017093690180936A0190936B01609368
:1002C00064017093650180936601909367011092B9
:1002D0006C0110926D0110926E0110926F011092DC
:1002E00071010895AF92BF92CF92DF92EF92FF9289
:1002F0000F931F93CF93809175010E94530A90939F
:10030000740180937301BC01882777FD8095982F35
:100310001F921F9227E02F9320ED2F9328EEA22EFD
:1003200023E0B22EC12CD12CEE24EA9413E0F12E5E
:1003300000E010E020E030E0A9010E94EF08709397
:100340000B0160930A0167E071E08AE091E00E948E
:100350001601209107010F900F900F900F90809140
:100360000601281709F471C08091720181116DC0D6
:10037000C1E0C09372010E94940960936801709378
:10038000690180936A0190936B010091640110915F
:1003900065012091660130916701DC01CB01801B72
:1003A000910BA20BB30B80936C0190936D01A09302
:1003B0006E01B0936F013091070120910601231760
:1003C00018F41092050102C0C0930501823C9140CF
:1003D000A105B10570F581E080937101809105015F
:1003E00081110AC090910401992391F08091040138
:1003F000813009F04AC014C0813009F046C09091A4
:100400000401913029F080910401882349F03DC016
:1004100090910D019F5F90930D01882339F306C0E1
:10042000809170018F5F809370012FC0813059F3EC
:100430002CC0109271011092700180910D018111F8
:1004400080930C0110920D0120C0109272018091D6
:1004500005018093040180910A0190910B01909312
:100460000901809308012093060180916801909111
:100470006901A0916A01B0916B018093640190932E
:100480006501A0936601B093670180917101882393
:1004900011F061E001C060E080910E010E94FA0A53
:1004A00080917201882309F45DC060910A01709106
:1004B0000B014AE050E087E791E00E948E0460E47F
:1004C00071E087E791E00E94D60340916C01509162
:1004D0006D0160916E0170916F012AE030E087E755
:1004E00091E00E94960460E471E087E791E00E9449
:1004F000D6034AE050E06091700187E791E00E94E6
:10050000A30460E471E087E791E00E94D6034AE02B
:1005100050E060910C0187E791E00E94A30460E441
:1005200071E087E791E00E94D6034AE050E06091D5
:100530000D0187E791E00E94A30460E471E087E782
:1005400091E00E94D60364E571E087E791E0CF91E6
:100550001F910F91FF90EF90DF90CF90BF90AF90E1
:100560000C94E303CF911F910F91FF90EF90DF90D8
:10057000CF90BF90AF900895CF93DF931F92CDB7E8
:10058000DEB76983DC01ED91FC910280F381E02DFF
:1005900041E050E0BE016F5F7F4F09950F90DF9102
:1005A000CF910895CF93DF93EC018C859D8597FFC4
:1005B00005C082E00E94BB059D878C878C859D8548
:1005C000DF91CF91089583E00C944F08FC0184855E
:1005D000958597FD06C082E00E94630590E0019634
:1005E000089582E00E94630590E00895FC018485EF
:1005F000958597FD05C02FEF3FEF35872487089538
:1006000082E00C94BB05CF93DF93EC0180911B013A
:10061000882331F083E00E94EC051816190634F0A7
:1006200081E090E09B838A8380E090E0DF91CF912E
:100630000895FC0120812E5F208342E450E06AECA3
:1006400070E080E80C948706FC0121818081813A6A
:1006500059F4213209F05CC047E050E064E171E0F8
:1006600080E00E94870667C0813209F051C02332C2
:1006700089F4838190E0982F88273281832BA0E032
:10068000B0E08093100190931101A0931201B093F8
:1006900013010FC0203239F467E070E084E191E08B
:1006A0000E94B8060AC0223221F4828180931B0185
:1006B00004C02D7F203209F03EC08091140190913A
:1006C0001501A0911601B0911701803B9440A1053E
:1006D000B10501F580911B0180FD1CC080910008CF
:1006E000909101089093FF0A8093FE0A87E797E7AD
:1006F00090930108809300082BE088E190E00FB60A
:10070000F894A895809360000FBE2093600013C0FA
:1007100080E0089588E10FB6F8948093600010920D
:1007200060000FBEA8958091FE0A9091FF0A9093F9
:1007300001088093000881E008952FEF3FEFFC014E
:1007400035872487089510927A011092790188EEF6
:1007500093E0A0E0B0E080937B0190937C01A093B4
:100760007D01B0937E0186E491E0909378018093BF
:1007700077018FEF9FEF9093840180938301089519
:100780006115710581F0DB010D900020E9F7AD01E5
:1007900041505109461B570BDC01ED91FC91028041
:1007A000F381E02D099480E090E008950C94C0035B
:1007B000DC01ED91FC910190F081E02D099462E55E
:1007C00071E00C94C0030F931F93CF93DF93EC0160
:1007D0000E94C0038C01CE010E94DF03800F911F95
:1007E000DF91CF911F910F9108958F929F92AF92B9
:1007F000BF92DF92EF92FF920F931F93CF93DF93FD
:10080000CDB7DEB7A1970FB6F894DEBF0FBECDBF50
:100810007C01F42FD52ECB0119A2223008F42AE056
:100820008E010F5D1F4F822E912CA12CB12C6F2FAA
:100830007D2DA50194010E94DC0BF22FD32ECA015D
:10084000015011096A3014F4E0E301C0E7E3E60F58
:10085000D801EC93232B242B252B49F7B801C70192
:100860000E94C003A1960FB6F894DEBF0FBECDBFA5
:10087000DF91CF911F910F91FF90EF90DF90BF908C
:10088000AF909F908F900895CF92DF92EF92FF925A
:100890000F931F93CF93DF93EC016A017B01211526
:1008A000310579F4E881F9810190F081E02D642F20
:1008B000DF91CF911F910F91FF90EF90DF90CF903C
:1008C00009942A303105E9F477FF1AC06DE20E94DD
:1008D000D8038C0144275527BA014C195D096E09CC
:1008E0007F092AE0CE010E94F503800F911FDF915E
:1008F000CF911F910F91FF90EF90DF90CF900895CF
:100900002AE0B701A601CE01DF91CF911F910F918F
:10091000FF90EF90DF90CF900C94F5039A01AB011C
:10092000662757FD6095762F0C94440421153105F8
:1009300041F4DC01ED91FC910190F081E02D642FF8
:1009400009940C94F5039A01462F50E060E070E0A2
:100950000C949604615030F02091F100FC0120834A
:100960000196F8CF289884E68093D00108954091AD
:10097000CB015091CC012091C9013091CA0142179D
:100980005307B4F49091E8009570E1F39091E8007A
:1009900092FD19C08093F1008091CB019091CC0120
:1009A00001968F739927892B19F48EEF8093E800B5
:1009B0008091CB019091CC0101969093CC018093D2
:1009C000CB0181E0089580E00895CF92DF92EF920D
:1009D000FF920F931F93CF93DF931F92CDB7DEB794
:1009E000082F162FF42E862F880F8E5F99830E9472
:1009F000B70483E00E94B704E02EC02E9981D92E5F
:100A00008C2D8E19811798F4F601F7FE02C084919F
:100A100001C080810E94B704082F80E00E94B704C3
:100A20008023FFEFCF1ADF0A8111EACF01C081E0F6
:100A30000F90DF91CF911F910F91FF90EF90DF907A
:100A4000CF9008958091D70081608093D70080EA8D
:100A50008093D80089B5806189BD89B5826089BDE0
:100A600009B400FEFDCF61E070E080E090E00E94FC
:100A7000C3098091D8008F7C80618093D8008091D9
:100A8000E000807F8093E0000895CF93DF931F9272
:100A9000CDB7DEB71982CE0101960E9419030E94DC
:100AA000B70BBE016F5F7F4F0E94300B89810F90A3
:100AB000DF91CF9108952FB7FC012083F8946770E0
:100AC0006093E9000895CF93DF931F92CDB7DEB70F
:100AD000682FCE0101960E945B058091F2009981FA
:100AE0009FBF0F90DF91CF910895FF920F931F93B7
:100AF000CF93DF9300D0CDB7DEB7F62E8A01909169
:100B0000CF01992311F057FF03C08FEF9FEF2BC048
:100B1000682FCE0101967A830E945B058091F200D6
:100B200090E0A8017A81801791070CF4AC01EF2DB9
:100B3000F72FF40E84E6FE1639F028988093D00142
:100B40009091F1009193F7CF4115510521F08091DB
:100B5000F200882321F089818FBFCA0104C08BE68F
:100B60008093E800F8CF0F900F90DF91CF911F9105
:100B70000F91FF900895CF93DF931F92CDB7DEB70B
:100B800041E050E0BE016F5F7F4F0E947505019705
:100B900019F4898190E002C08FEF9FEF0F90DF91F1
:100BA000CF910895CF93DF931F92CDB7DEB7682F13
:100BB000CE0101960E945B059091E800892F80721A
:100BC00095FF04C09091F20080E4891B99819FBF3A
:100BD0000F90DF91CF9108956F927F928F929F92A5
:100BE000AF92BF92CF92DF92EF92FF920F931F933B
:100BF000CF93DF931F92CDB7DEB7782E7B01C42E43
:100C0000B52E8091CF01882369F0042F152F8AEF2C
:100C1000D82E872D8072982E9AE3A92E872D807466
:100C2000882E11C08FEF9FEF57C0872D0E94D205ED
:100C3000682E81110CC0DA94A9F361E070E080E0C5
:100C400090E00E94C3090115110579F73BC0282FD8
:100C500030E0021713070CF4602E672DCE010196C9
:100C60000E945B058091E80085FF29C0262D30E0B9
:100C7000021B130B992039F06A948FEF6816B1F0BC
:100C80001092F100F9CFF701862D77FE07C0815051
:100C900058F094919093F1003196F9CF815020F063
:100CA00091919093F100FACFE20EF31E8091E8004B
:100CB00085FF0FC00115110511F481100AC089814B
:100CC0008FBFC1CF5D9884E68093D1018C2D9B2D81
:100CD00003C0A092E800F3CF0F90DF91CF911F9156
:100CE0000F91FF90EF90DF90CF90BF90AF909F90CB
:100CF0008F907F906F9008951092E9001092CC0130
:100D00001092CB019093CA018093C9010895CF92AC
:100D1000DF92FF920F931F93CF93DF9300D0CDB755
:100D2000DEB7F82E8A016B0101151105B1F0F6014D
:100D3000F7FE02C0849101C0808149835A830E94DA
:100D4000B70401501109FFEFCF1ADF0A49815A8118
:100D50008111EACF8FEF9FEF01C0CA010F900F9072
:100D6000DF91CF911F910F91FF90DF90CF90089569
:100D7000BF92CF92DF92EF92FF920F931F93CF9388
:100D8000DF936C018B01EB013BEFB32E2097C1F099
:100D90007E01C134D1051CF020E4E22EF12C8091BB
:100DA000E80082FFFCCFC8018C1B9D0B6E2D8C0DC3
:100DB0009D1D0E94AA04B092E800CE19DF09E6CF7B
:100DC000C801DF91CF911F910F91FF90EF90DF90BD
:100DD000CF90BF9008951F920F920FB60F921124DB
:100DE000DF92EF92FF920F931F932F933F934F93B6
:100DF0005F936F937F938F939F93AF93BF93EF9383
:100E0000FF93CF93DF93CDB7DEB76C97DEBFCDBF37
:100E10001092E9008091E80083FF23C168E0CE01D1
:100E200045960E94AA0482EF8093E8003D8937FF2F
:100E300005C08091E80080FFFCCF03C08EEF809357
:100E4000E800832F807609F0F0C02E894F89D88C76
:100E500021110CC0303829F48091CE018093F1002B
:100E600002C01092F1001092F100F4C0842F90E0C3
:100E70009D29213049F43111EDC0019709F0EAC0F4
:100E80008091CE018D7F0AC0233059F43111E2C028
:100E9000019709F0DFC08091CE0182608093CE017E
:100EA000D9C0253041F48091E80080FFFCCF406834
:100EB0004093E300CFC0263009F08DC0EB8CFC8C52
:100EC00022E0D2122CC080E090E00E947C060E94BA
:100ED000450599E08E010F5F1F4FF801292F1192F0
:100EE0002A95E9F79983DA8291E09E8390EA9887C0
:100EF0009AEF99872091CB013091CC01275F3F4F2A
:100F00003C832B838D83C7010E947C0649E050E01F
:100F1000B80180E00E9487060E9445059BC0C7017A
:100F20000E947C060E94B70BBE016B5E7F4F0E9441
:100F3000590B009719F00CF08DC090C081E0D812C9
:100F40000EC08B8D9C8D089719F481E08093C801A9
:100F50008091C80181112FC06EE171E031C0E3E0E2
:100F6000DE127CC08F89882349F1823029F440E861
:100F700060E18CE391E01CC0813029F440E86BE033
:100F800080E391E015C0833009F068C00E94B70B80
:100F90008E010F5F1F4FB8010E94780BF80101907E
:100FA0000020E9F73197E01BF10B40E06E2FC801FC
:100FB0000E94E5044DC06CE071E002C06DE471E098
:100FC0006115710509F44AC0FB01449150E080E8C5
:100FD0000E9487063FC0273009F440C0283021F422
:100FE00081E08093F10036C02930A1F53370B1F56E
:100FF000EDE1F1E081E021E036E39081992361F0B9
:101000008093E9002093EB0091919093EC00309352
:10101000ED008F5F873089F78EE78093EA001092AA
:10102000EA008F898093CF0115C08B8D9C8D0E9423
:101030007C06898D811105C0CE0145960E9424034E
:1010400007C00E94B70BBE016B5E7F4F0E94970BDB
:10105000882321F08EEF8093E80003C081E2809323
:10106000EB006C960FB6F894DEBF0FBECDBFDF91DC
:10107000CF91FF91EF91BF91AF919F918F917F9110
:101080006F915F914F913F912F911F910F91FF9021
:10109000EF90DF900F900FBE0F901F9018958093E8
:1010A000E9008091F200882319F08AE38093E80038
:1010B00008951F920F920FB60F9211242F933F9312
:1010C0004F935F936F937F938F939F93AF93BF9350
:1010D000CF93EF93FF93C091E1008091E100837F74
:1010E0008093E1008093E100C3FF0FC01092E900FC
:1010F00081E08093EB001092EC0082E38093ED009E
:101100001092CF0188E08093F000C2FF19C083E005
:101110000E944F088091D101882339F08091D1013C
:1011200081508093D101882389F18091D001882357
:1011300039F08091D00181508093D001882341F112
:10114000C4FF10C08091E2008E7E81608093E20037
:101150008091E1008F7E8093E1008091CD018E7EB1
:10116000806111C0C0FF16C08091E2008E7E806158
:101170008093E2008091E1008E7E8093E100809177
:10118000CD018E7E81608093CD0104C05D9ACDCF6C
:10119000289AD6CFFF91EF91CF91BF91AF919F91B8
:1011A0008F917F916F915F914F913F912F910F9010
:1011B0000FBE0F901F9018951092CF011092CE0184
:1011C0001092CD010E942205E1EEF0E080818E7E3A
:1011D00080838DE08093E200559A209A08954F9283
:1011E0005F926F927F92AF92BF92CF92DF92EF9217
:1011F000FF920F931F93CF93DF93CDB7DEB72901F3
:101200003A01621B730B840B950B29893A894B8930
:101210005C892A193B094C095D09298B3A8B4B8B58
:101220005C8B9B01AC0169897A898B899C890E94BE
:10123000CC0BE418F50806091709A80197010E94CC
:10124000FE0B2A0D3B1D4C1D5D1DCA01B901DF912E
:10125000CF911F910F91FF90EF90DF90CF90BF90B3
:10126000AF907F906F905F904F90089508950E9487
:10127000FD090E94360987EC91E00E94DC080E947B
:101280003601C0E0D0E00E9472012097E1F30E9495
:101290000000F9CF1F920F920FB60F9211242F93D7
:1012A0003F938F939F93AF93BF938091D30190917E
:1012B000D401A091D501B091D6013091D20123E0A3
:1012C000230F2D3720F40196A11DB11D05C026E87E
:1012D000230F0296A11DB11D2093D2018093D3014B
:1012E0009093D401A093D501B093D6018091D701FA
:1012F0009091D801A091D901B091DA010196A11D78
:10130000B11D8093D7019093D801A093D901B093D8
:10131000DA01BF91AF919F918F913F912F910F90E3
:101320000FBE0F901F9018952FB7F8946091D301BE
:101330007091D4018091D5019091D6012FBF08956D
:101340003FB7F8948091D7019091D801A091D9012D
:10135000B091DA0126B5A89B05C02F3F19F0019680
:10136000A11DB11D3FBF6627782F892F9A2F620FCD
:10137000711D811D911D42E0660F771F881F991F07
:101380004A95D1F708958F929F92AF92BF92CF92D4
:10139000DF92EF92FF926B017C010E94A0094B014A
:1013A0005C01C114D104E104F104F1F00E94CB0B03
:1013B0000E94A009681979098A099B09683E73404F
:1013C0008105910570F321E0C21AD108E108F10806
:1013D00088EE880E83E0981EA11CB11CC114D104B4
:1013E000E104F10429F7DDCFFF90EF90DF90CF907B
:1013F000BF90AF909F908F900895789484B582604D
:1014000084BD84B5816084BD85B5826085BD85B5A8
:10141000816085BDEEE6F0E0808181608083E1E857
:10142000F0E010828081826080838081816080838F
:10143000E0E8F0E0808181608083E1E9F0E0808194
:1014400082608083808181608083E0E9F0E0808138
:1014500081608083E1ECF0E0808184608083808122
:1014600082608083808181608083E3ECF0E0808112
:1014700081608083E0ECF0E0808182608083E2EC38
:10148000F0E0808181608083EAE7F0E08081846021
:10149000808380818260808380818160808380817D
:1014A000806880830895823108F08251E82FF0E04F
:1014B000EF5AFE4FE49180917B00E3FB222720F955
:1014C00030E095E0220F331F9A95E1F78F7D822B54
:1014D00080937B00E7708091230120E4829FC0010C
:1014E0001124E82BE0937C0080917A008064809343
:1014F0007A0080917A0086FDFCCF8091780020915F
:10150000790090E0922B089590E0FC013197EF3044
:10151000F105B0F5EA5AFF4F0C941D0C8091800044
:101520008F7703C0809180008F7D80938000089525
:1015300080918000877FF9CF84B58F7702C084B512
:101540008F7D84BD0895809190008F7707C0809132
:1015500090008F7D03C080919000877F80939000E2
:1015600008958091C0008F7703C08091C0008F7D67
:101570008093C00008958091C200877F8093C2004D
:101580000895CF93DF9390E0FC01E458FE4F24913F
:10159000FC01E556FE4F8491882349F190E0880FC5
:1015A000991FFC01E853FE4FA591B49186549E4FBC
:1015B000FC01C591D4919FB7611108C0F8948C913A
:1015C000209582238C93888182230AC0623051F453
:1015D000F8948C91322F309583238C938881822BC1
:1015E000888304C0F8948C91822B8C939FBFDF91E9
:1015F000CF9108950F931F93CF93DF931F92CDB791
:10160000DEB7282F30E0F901E35AFE4F8491F9014B
:10161000E458FE4F1491F901E556FE4F0491002362
:10162000C9F0882321F069830E94840A6981E02F30
:10163000F0E0EE0FFF1FE654FE4FA591B4919FB767
:10164000F8948C91611103C01095812301C0812B06
:101650008C939FBF0F90DF91CF911F910F910895B1
:10166000EF92FF920F931F93CF93DF937B01FC01C7
:10167000C281D38100E010E0209781F0E881F981F8
:101680000280F381E02DB701CE01099597FD08C0D6
:10169000080F191F0884D985C02DEECFC80102C0DC
:1016A0008FEF9FEFDF91CF911F910F91FF90EF9000
:1016B00008950F931F93CF93DF938B01FC01C28199
:1016C000D381209771F0E881F9810480F581E02DC4
:1016D000B801CE010995009731F40884D985C02D51
:1016E000F0CF80E090E0DF91CF911F910F910895AE
:1016F0000F931F93CF93DF938B01FC01C281D381A2
:10170000209771F0E881F9810680F781E02DB8011A
:10171000CE010995080F111D0884D985C02DF0CF81
:10172000F8011082DF91CF911F910F9108950F93CF
:101730001F93CF93DF938B01FC01C281D38120974C
:1017400071F0E881F9810190F081E02DB801CE01BE
:101750000995811106C00884D985C02DF0CF80E09D
:1017600001C081E0DF91CF911F910F910895809189
:10177000DF0181110DC082E08093DB0184E0809362
:10178000DC011092DE011092DD0181E08093DF0127
:101790008BED91E008950895DB018F939F930E9454
:1017A000230CBF91AF91A29F800D911DA39F900D1F
:1017B000B29F900D11240895A1E21A2EAA1BBB1B03
:1017C000FD010DC0AA1FBB1FEE1FFF1FA217B3070D
:1017D000E407F50720F0A21BB30BE40BF50B661F23
:1017E000771F881F991F1A9469F7609570958095E7
:1017F00090959B01AC01BD01CF010895052E97FB8B
:101800001EF400940E94150C57FD07D00E94DC0BBB
:1018100007FC03D04EF40C94150C50954095309570
:1018200021953F4F4F4F5F4F08959095809570954C
:1018300061957F4F8F4F9F4F0895EE0FFF1F0590CB
:10184000F491E02D09940E942E0CA59F900DB49F59
:10185000900DA49F800D911D11240895A29FB001A9
:10186000B39FC001A39F700D811D1124911DB29FD4
:0E187000700D811D1124911D0895F894FFCF75
:10187E000100000002020103DC05DC050001090085
:10188E00FFFFFFFF00E100000000000000C18081AB
:10189E00000000014153434949205461626C6520A8
:1018AE007E20436861726163746572204D617000C1
:1018BE003A0000000000BC020303E602F602D20268
:1018CE00E3020D0A006E616E00696E66006F766649
:0418DE00002E0000D8
:00000001FF
