:100000000C94EC000C9414010C9414010C94140145
:100010000C9414010C9414010C9414010C9414010C
:100020000C9414010C9414010C94F4070C9486069F
:100030000C9414010C9414010C9414010C941401EC
:100040000C9414010C9414010C9414010C941401DC
:100050000C9414010C9414010C9414010C94E508F4
:100060000C9414010C9414010C9414010C941401BC
:100070000C9414010C9414010C9414010C941401AC
:100080000C9414010C9414010C9414010C9414019C
:100090000C9414010C9414010C9414010C9414018C
:1000A0000C9414010C9414010C941401370A3A0AAC
:1000B000290A2D0A330A5B0A5B0A5B0A3E0A420AD6
:1000C000460A4C0A500A5B0A560A080B0002020252
:1000D00001000904000001020200000524001001D3
:1000E0000524010101042402060524060001070578
:1000F000810310004009040100020A000000070506
:1001000002024000000705830240000012010002C5
:10011000EF02014041233680000101020301120178
:10012000000200000040412336800001010203016B
:1001300041726475696E6F204C4C43004172647566
:10014000696E6F204C656F6E6172646F0004030905
:1001500004070605040100080A0B0C0D0900000045
:100160000200090F0000030401000C000000000061
:100170000000000000000000000000000408020170
:1001800010408040102040804080080204018040E0
:1001900020100201108010204040200404040404B8
:1001A000030405020202020403020202020606061A
:1001B00006060604040202020404000000002500F2
:1001C00028002B002E003100000000002400270032
:1001D0002A002D0030002D0311241FBECFEFDAE0DE
:1001E000DEBFCDBF11E0A0E0B1E0E4EBF7E102C07B
:1001F00005900D92AA35B107D9F721E0AAE5B1E043
:1002000001C01D92A83DB207E1F711E0C8EDD1E0B1
:1002100004C02297FE010E94BA0BC63DD107C9F760
:100220000E94D2080C94D80B0C940000FC01808131
:1002300091819C01205B34402935324018F48CEDCB
:1002400095E008C0803B94401CF488EE93E002C027
:1002500080ED97E091838083089561E080910401AF
:100260000E945C0A40E855E260E070E088E691E0B8
:100270000E94180388E691E00E941E038823D1F3B0
:100280006AE171E088E691E00E946D0310926101DD
:1002900010926001109263011092620110925F014E
:1002A00010925E010895AF92BF92CF92DF92EF92CB
:1002B000FF920F931F932091600130916101809113
:1002C0006201909163012817390709F45CC00E940C
:1002D0002F096E537E4F8F4F9F4F60935A0170933B
:1002E0005B0180935C0190935D016091600170916E
:1002F00061014AE050E088E691E00E94180466E35C
:1003000071E088E691E00E94600360916201709163
:1003100063014AE050E088E691E00E94180466E339
:1003200071E088E691E00E94600340915A0150918B
:100330005B0160915C0170915D012AE030E088E62C
:1003400091E00E94380466E371E088E691E00E9443
:1003500060030E942F09AB01BC012AE030E088E66F
:1003600091E00E94380466E371E088E691E00E9423
:10037000600360916201709163014AE050E088E699
:1003800091E00E942004C0905A01D0905B01E0905F
:100390005C01F0905D010E942F096C157D058E05B2
:1003A0009F0570F4809162019091630190935F01C9
:1003B00080935E0161E0809104010E94950A17C05C
:1003C000809160019091610190935F0180935E0143
:1003D00060E0809104010E94950A0E942F096093B9
:1003E0005A0170935B0180935C0190935D01809151
:1003F000600190916101909363018093620180910B
:1004000066010E94EE099093650180936401BC012E
:10041000882777FD8095982F1F921F9227E02F93B2
:1004200020ED2F9328EEA22E23E0B22EC12CD12C4A
:10043000EE24EA9413E0F12E00E010E020E030E03A
:10044000A9010E948A0870936101609360010F9076
:100450000F900F900F9080E691E01F910F91FF9009
:10046000EF90DF90CF90BF90AF900C941601CF9398
:10047000DF931F92CDB7DEB76983DC01ED91FC916C
:100480000280F381E02D41E050E0BE016F5F7F4FBD
:1004900009950F90DF91CF910895CF93DF93EC01F1
:1004A0008C859D8597FF05C082E00E9456059D873B
:1004B0008C878C859D85DF91CF91089583E00C9486
:1004C000EA07FC018485958597FD06C082E00E94BD
:1004D000FE0490E00196089582E00E94FE0490E000
:1004E0000895FC018485958597FD05C02FEF3FEFAA
:1004F00035872487089582E00C945605CF93DF93C7
:10050000EC0180911101882331F083E00E9487057E
:100510001816190634F081E090E09B838A8380E00E
:1005200090E0DF91CF910895FC0120812E5F208320
:1005300042E450E06AEC70E080E80C942206FC0192
:1005400021818081813A59F4213209F05CC047E071
:1005500050E06AE071E080E00E94220667C08132CC
:1005600009F051C0233289F4838190E0982F8827C5
:100570003281832BA0E0B0E08093060190930701C5
:10058000A0930801B09309010FC0203239F467E04D
:1005900070E08AE091E00E9453060AC0223221F402
:1005A00082818093110104C02D7F203209F03EC06A
:1005B00080910A0190910B01A0910C01B0910D0165
:1005C000803B9440A105B10501F58091110180FDAA
:1005D0001CC080910008909101089093FF0A8093BD
:1005E000FE0A87E797E790930108809300082BE0C5
:1005F00088E190E00FB6F894A895809360000FBE54
:100600002093600013C080E0089588E10FB6F8944D
:1006100080936000109260000FBEA8958091FE0A42
:100620009091FF0A909301088093000881E008955B
:100630002FEF3FEFFC01358724870895CF93C091BA
:1006400011016AE070E080E090E00E945E0981E0C4
:10065000C11101C080E0CF91089510926B011092FA
:100660006A0188EE93E0A0E0B0E080936C01909383
:100670006D01A0936E01B0936F018CE391E09093B4
:100680006901809368018FEF9FEF909375018093CC
:10069000740108956115710581F0DB010D90002052
:1006A000E9F7AD0141505109461B570BDC01ED91B3
:1006B000FC910280F381E02D099480E090E00895A0
:1006C0000C944A03DC01ED91FC910190F081E02D46
:1006D000099468E471E00C944A030F931F93CF933D
:1006E000DF93EC010E944A038C01CE010E94690352
:1006F000800F911FDF91CF911F910F9108958F92DD
:100700009F92AF92BF92DF92EF92FF920F931F934F
:10071000CF93DF93CDB7DEB7A1970FB6F894DEBFC6
:100720000FBECDBF7C01F42FD52ECB0119A22230F4
:1007300008F42AE08E010F5D1F4F822E912CA12C10
:10074000B12C6F2F7D2DA50194010E94770BF22F04
:10075000D32ECA01015011096A3014F4E0E301C03C
:10076000E7E3E60FD801EC93232B242B252B49F745
:10077000B801C7010E944A03A1960FB6F894DEBFE4
:100780000FBECDBFDF91CF911F910F91FF90EF90E2
:10079000DF90BF90AF909F908F900895CF92DF929F
:1007A000EF92FF920F931F93CF93DF93EC016A01B7
:1007B0007B012115310579F4E881F9810190F081FF
:1007C000E02D642FDF91CF911F910F91FF90EF905B
:1007D000DF90CF9009942A303105E9F477FF1AC0F1
:1007E0006DE20E9462038C0144275527BA014C191F
:1007F0005D096E097F092AE0CE010E947F03800F08
:10080000911FDF91CF911F910F91FF90EF90DF909B
:10081000CF9008952AE0B701A601CE01DF91CF91D4
:100820001F910F91FF90EF90DF90CF900C947F037A
:100830009A01AB01662757FD6095762F0C94CE0385
:100840000F931F93CF93DF93EC019A01AB016627BF
:1008500057FD6095762F0E94CE038C01CE010E9439
:100860006903800F911FDF91CF911F910F91089520
:100870002115310541F4DC01ED91FC910190F081ED
:10088000E02D642F09940C947F03615030F0209187
:10089000F100FC0120830196F8CF289884E680932C
:1008A000C10108954091BC015091BD012091BA0150
:1008B0003091BB0142175307B4F49091E800957052
:1008C000E1F39091E80092FD19C08093F1008091CE
:1008D000BC019091BD0101968F739927892B19F462
:1008E0008EEF8093E8008091BC019091BD0101964C
:1008F0009093BD018093BC0181E0089580E008954C
:10090000CF92DF92EF92FF920F931F93CF93DF93DB
:100910001F92CDB7DEB7082F162FF42E862F880F23
:100920008E5F99830E94520483E00E945204E02E5D
:10093000C02E9981D92E8C2D8E19811798F4F6012D
:10094000F7FE02C0849101C080810E945204082FEA
:1009500080E00E9452048023FFEFCF1ADF0A81114A
:10096000EACF01C081E00F90DF91CF911F910F91ED
:10097000FF90EF90DF90CF9008958091D700816035
:100980008093D70080EA8093D80089B5806189BDC3
:1009900089B5826089BD09B400FEFDCF61E070E0D9
:1009A00080E090E00E945E098091D8008F7C806199
:1009B0008093D8008091E000807F8093E0000895CC
:1009C000CF93DF931F92CDB7DEB71982CE01019688
:1009D0000E9494020E94520BBE016F5F7F4F0E94E3
:1009E000CB0A89810F90DF91CF9108952FB7FC0139
:1009F0002083F89467706093E9000895CF93DF93A4
:100A00001F92CDB7DEB7682FCE0101960E94F60483
:100A10008091F20099819FBF0F90DF91CF9108954F
:100A2000FF920F931F93CF93DF9300D0CDB7DEB724
:100A3000F62E8A019091C001992311F057FF03C04F
:100A40008FEF9FEF2BC0682FCE0101967A830E9413
:100A5000F6048091F20090E0A8017A818017910756
:100A60000CF4AC01EF2DF72FF40E84E6FE1639F0EE
:100A700028988093C1019091F1009193F7CF41158F
:100A8000510521F08091F200882321F089818FBFE8
:100A9000CA0104C08BE68093E800F8CF0F900F9056
:100AA000DF91CF911F910F91FF900895CF93DF9326
:100AB0001F92CDB7DEB741E050E0BE016F5F7F4FC0
:100AC0000E941005019719F4898190E002C08FEF10
:100AD0009FEF0F90DF91CF910895CF93DF931F92F7
:100AE000CDB7DEB7682FCE0101960E94F604909133
:100AF000E800892F807295FF04C09091F20080E495
:100B0000891B99819FBF0F90DF91CF9108956F92BC
:100B10007F928F929F92AF92BF92CF92DF92EF928D
:100B2000FF920F931F93CF93DF931F92CDB7DEB742
:100B3000782E7B01C42EB52E8091C001882369F0E8
:100B4000042F152F8AEFD82E872D8072982E9AE3C6
:100B5000A92E872D8074882E11C08FEF9FEF57C06C
:100B6000872D0E946D05682E81110CC0DA94A9F3BF
:100B700061E070E080E090E00E945E0901151105DF
:100B800079F73BC0282F30E0021713070CF4602ED2
:100B9000672DCE0101960E94F6048091E80085FF42
:100BA00029C0262D30E0021B130B992039F06A94DE
:100BB0008FEF6816B1F01092F100F9CFF701862D92
:100BC00077FE07C0815058F094919093F1003196D0
:100BD000F9CF815020F091919093F100FACFE20E7D
:100BE000F31E8091E80085FF0FC00115110511F477
:100BF00081100AC089818FBFC1CF5D9884E6809340
:100C0000C2018C2D9B2D03C0A092E800F3CF0F9062
:100C1000DF91CF911F910F91FF90EF90DF90CF90D8
:100C2000BF90AF909F908F907F906F90089510929B
:100C3000E9001092BD011092BC019093BB0180931A
:100C4000BA010895CF92DF92FF920F931F93CF9333
:100C5000DF9300D0CDB7DEB7F82E8A016B01011506
:100C60001105B1F0F601F7FE02C0849101C0808148
:100C700049835A830E94520401501109FFEFCF1A91
:100C8000DF0A49815A818111EACF8FEF9FEF01C0BE
:100C9000CA010F900F90DF91CF911F910F91FF909C
:100CA000DF90CF900895BF92CF92DF92EF92FF92A4
:100CB0000F931F93CF93DF936C018B01EB013BEFFD
:100CC000B32E2097C1F07E01C134D1051CF020E481
:100CD000E22EF12C8091E80082FFFCCFC8018C1B32
:100CE0009D0B6E2D8C0D9D1D0E944504B092E80059
:100CF000CE19DF09E6CFC801DF91CF911F910F9187
:100D0000FF90EF90DF90CF90BF9008951F920F92C9
:100D10000FB60F921124DF92EF92FF920F931F9361
:100D20002F933F934F935F936F937F938F939F93F3
:100D3000AF93BF93EF93FF93CF93DF93CDB7DEB71E
:100D40006C97DEBFCDBF1092E9008091E80083FF71
:100D500023C168E0CE0145960E94450482EF80934E
:100D6000E8003D8937FF05C08091E80080FFFCCF97
:100D700003C08EEF8093E800832F807609F0F0C0E7
:100D80002E894F89D88C21110CC0303829F48091DC
:100D9000BF018093F10002C01092F1001092F100A7
:100DA000F4C0842F90E09D29213049F43111EDC029
:100DB000019709F0EAC08091BF018D7F0AC02330FE
:100DC00059F43111E2C0019709F0DFC08091BF01F1
:100DD00082608093BF01D9C0253041F48091E80042
:100DE00080FFFCCF40684093E300CFC0263009F07D
:100DF0008DC0EB8CFC8C22E0D2122CC080E090E005
:100E00000E9417060E94E00499E08E010F5F1F4FB9
:100E1000F801292F11922A95E9F79983DA8291E056
:100E20009E8390EA98879AEF99872091BC01309130
:100E3000BD01275F3F4F3C832B838D83C7010E94F9
:100E4000170649E050E0B80180E00E9422060E94A7
:100E5000E0049BC0C7010E9417060E94520BBE010E
:100E60006B5E7F4F0E94F40A009719F00CF08DC062
:100E700090C081E0D8120EC08B8D9C8D089719F41C
:100E800081E08093B9018091B90181112FC06EE199
:100E900071E031C0E3E0DE127CC08F89882349F124
:100EA000823029F440E860E18CE391E01CC081309D
:100EB00029F440E86BE080E391E015C0833009F04D
:100EC00068C00E94520B8E010F5F1F4FB8010E9435
:100ED000130BF80101900020E9F73197E01BF10BAB
:100EE00040E06E2FC8010E9480044DC06CE071E0AC
:100EF00002C06DE471E06115710509F44AC0FB019F
:100F0000449150E080E80E9422063FC0273009F457
:100F100040C0283021F481E08093F10036C02930B0
:100F2000A1F53370B1F5E3E1F1E081E021E036E3D2
:100F30009081992361F08093E9002093EB009191D7
:100F40009093EC003093ED008F5F873089F78EE748
:100F50008093EA001092EA008F898093C00115C047
:100F60008B8D9C8D0E941706898D811105C0CE0145
:100F700045960E949F0207C00E94520BBE016B5E05
:100F80007F4F0E94320B882321F08EEF8093E80080
:100F900003C081E28093EB006C960FB6F894DEBF3D
:100FA0000FBECDBFDF91CF91FF91EF91BF91AF9178
:100FB0009F918F917F916F915F914F913F912F9171
:100FC0001F910F91FF90EF90DF900F900FBE0F9049
:100FD0001F9018958093E9008091F200882319F002
:100FE0008AE38093E80008951F920F920FB60F9244
:100FF00011242F933F934F935F936F937F938F931E
:101000009F93AF93BF93CF93EF93FF93C091E10072
:101010008091E100837F8093E1008093E100C3FF32
:101020000FC01092E90081E08093EB001092EC0079
:1010300082E38093ED001092C00188E08093F0007D
:10104000C2FF19C083E00E94EA078091C201882391
:1010500039F08091C20181508093C201882389F1C7
:101060008091C101882339F08091C1018150809322
:10107000C101882341F1C4FF10C08091E2008E7E3F
:1010800081608093E2008091E1008F7E8093E10097
:101090008091BE018E7E806111C0C0FF16C080911C
:1010A000E2008E7E80618093E2008091E1008E7E7E
:1010B0008093E1008091BE018E7E81608093BE01AD
:1010C00004C05D9ACDCF289AD6CFFF91EF91CF91F2
:1010D000BF91AF919F918F917F916F915F914F9150
:1010E0003F912F910F900FBE0F901F901895109267
:1010F000C0011092BF011092BE010E94BD04E1EE3A
:10110000F0E080818E7E80838DE08093E200559AAE
:10111000209A08954F925F926F927F92AF92BF9202
:10112000CF92DF92EF92FF920F931F93CF93DF93B3
:10113000CDB7DEB729013A01621B730B840B950B07
:1011400029893A894B895C892A193B094C095D092F
:10115000298B3A8B4B8B5C8B9B01AC0169897A891B
:101160008B899C890E94670BE418F508060917090A
:10117000A80197010E94990B2A0D3B1D4C1D5D1D76
:10118000CA01B901DF91CF911F910F91FF90EF90AC
:10119000DF90CF90BF90AF907F906F905F904F9017
:1011A000089508950E9498090E94D10888EB91E063
:1011B0000E9477080E942D01C0E0D0E00E945301F8
:1011C0002097E1F30E940000F9CF1F920F920FB613
:1011D0000F9211242F933F938F939F93AF93BF93BD
:1011E0008091C4019091C501A091C601B091C70141
:1011F0003091C30123E0230F2D3720F40196A11D68
:10120000B11D05C026E8230F0296A11DB11D209334
:10121000C3018093C4019093C501A093C601B0930C
:10122000C7018091C8019091C901A091CA01B091F4
:10123000CB010196A11DB11D8093C8019093C901F6
:10124000A093CA01B093CB01BF91AF919F918F91B1
:101250003F912F910F900FBE0F901F9018952FB7B1
:10126000F8946091C4017091C5018091C60190917C
:10127000C7012FBF08953FB7F8948091C80190919E
:10128000C901A091CA01B091CB0126B5A89B05C0A8
:101290002F3F19F00196A11DB11D3FBF6627782F82
:1012A000892F9A2F620F711D811D911D42E0660FDB
:1012B000771F881F991F4A95D1F708958F929F92A3
:1012C000AF92BF92CF92DF92EF92FF926B017C01BF
:1012D0000E943B094B015C01C114D104E104F104FB
:1012E000F1F00E94660B0E943B09681979098A098E
:1012F0009B09683E73408105910570F321E0C21A95
:10130000D108E108F10888EE880E83E0981EA11C40
:10131000B11CC114D104E104F10429F7DDCFFF9021
:10132000EF90DF90CF90BF90AF909F908F900895F7
:10133000789484B5826084BD84B5816084BD85B5B0
:10134000826085BD85B5816085BDEEE6F0E0808177
:1013500081608083E1E8F0E0108280818260808398
:10136000808181608083E0E8F0E08081816080831B
:10137000E1E9F0E080818260808380818160808308
:10138000E0E9F0E0808181608083E1ECF0E0808141
:10139000846080838081826080838081816080839B
:1013A000E3ECF0E0808181608083E0ECF0E080811C
:1013B00082608083E2ECF0E0808181608083EAE7F4
:1013C000F0E080818460808380818260808380817E
:1013D000816080838081806880830895823108F0F5
:1013E0008251E82FF0E0EF5AFE4FE49180917B00AC
:1013F000E3FB222720F930E095E0220F331F9A9576
:10140000E1F78F7D822B80937B00E770809119013B
:1014100020E4829FC0011124E82BE0937C0080919E
:101420007A00806480937A0080917A0086FDFCCFF8
:10143000809178002091790090E0922B089590E0BF
:10144000FC013197EF30F105B0F5EA5AFF4F0C94EB
:10145000B80B809180008F7703C0809180008F7DD2
:1014600080938000089580918000877FF9CF84B5B4
:101470008F7702C084B58F7D84BD089580919000E0
:101480008F7707C0809190008F7D03C0809190007E
:10149000877F8093900008958091C0008F7703C06C
:1014A0008091C0008F7D8093C00008958091C2001C
:1014B000877F8093C2000895CF93DF9390E0FC0173
:1014C000E458FE4F2491FC01E556FE4F8491882399
:1014D00049F190E0880F991FFC01E853FE4FA59158
:1014E000B49186549E4FFC01C591D4919FB7611170
:1014F00008C0F8948C91209582238C938881822354
:101500000AC0623051F4F8948C91322F30958323C5
:101510008C938881822B888304C0F8948C91822BD1
:101520008C939FBFDF91CF9108950F931F93CF931B
:10153000DF931F92CDB7DEB7282F30E0F901E35AD1
:10154000FE4F8491F901E458FE4F1491F901E556DC
:10155000FE4F04910023C9F0882321F069830E9483
:101560001F0A6981E02FF0E0EE0FFF1FE654FE4FE7
:10157000A591B4919FB7F8948C91611103C0109517
:10158000812301C0812B8C939FBF0F90DF91CF915E
:101590001F910F910895EF92FF920F931F93CF9396
:1015A000DF937B01FC01C281D38100E010E0209732
:1015B00081F0E881F9810280F381E02DB701CE014D
:1015C000099597FD08C0080F191F0884D985C02DFB
:1015D000EECFC80102C08FEF9FEFDF91CF911F9137
:1015E0000F91FF90EF9008950F931F93CF93DF9388
:1015F0008B01FC01C281D381209771F0E881F981D0
:101600000480F581E02DB801CE010995009731F4F1
:101610000884D985C02DF0CF80E090E0DF91CF9194
:101620001F910F9108950F931F93CF93DF938B0119
:10163000FC01C281D381209771F0E881F981068095
:10164000F781E02DB801CE010995080F111D08841E
:10165000D985C02DF0CFF8011082DF91CF911F9175
:101660000F9108950F931F93CF93DF938B01FC018C
:10167000C281D381209771F0E881F9810190F081D6
:10168000E02DB801CE010995811106C00884D985E5
:10169000C02DF0CF80E001C081E0DF91CF911F919C
:1016A0000F9108958091D00181110DC082E0809347
:1016B000CC0184E08093CD011092CF011092CE0135
:1016C00081E08093D0018CEC91E008950895DB01D6
:1016D0008F939F930E94BE0BBF91AF91A29F800DED
:1016E000911DA39F900DB29F900D11240895A1E22A
:1016F0001A2EAA1BBB1BFD010DC0AA1FBB1FEE1F8C
:10170000FF1FA217B307E407F50720F0A21BB30BD6
:10171000E40BF50B661F771F881F991F1A9469F752
:1017200060957095809590959B01AC01BD01CF01AE
:101730000895052E97FB1EF400940E94B00B57FDF0
:1017400007D00E94770B07FC03D04EF40C94B00B2B
:1017500050954095309521953F4F4F4F5F4F0895DD
:1017600090958095709561957F4F8F4F9F4F08950D
:10177000EE0FFF1F0590F491E02D09940E94C90B14
:10178000A59F900DB49F900DA49F800D911D1124D5
:101790000895A29FB001B39FC001A39F700D811D4A
:1017A0001124911DB29F700D811D1124911D08956A
:0417B000F894FFCFDB
:1017B400010000000900FFFFFFFF00E1000000003E
:1017C400000000C1808100000001415343494920C9
:1017D4005461626C65207E20436861726163746544
:1017E40072204D6170003A000000000037027E0252
:1017F400610271024D025E020D0A006E616E0069A3
:0A1804006E66006F7666002E00008D
:00000001FF
